:020000040000FA
:040000005DEF00F0C0
:100008004A82FACF10F0FBCF11F0D9CF12F0DACF35
:1000180013F0F3CF14F0F4CF15F0F2AC16EF00F0B4
:1000280018EF00F04FEF00F00E01BEA31EEF00F036
:1000380020EF00F02BEF00F0C6A325EF00F027EF2C
:1000480000F02BEF00F0DAEC19F04FEF00F0C1A54B
:1000580030EF00F032EF00F03DEF00F0C9A537EFC8
:1000680000F039EF00F03DEF00F04BEC18F04FEFE7
:1000780000F0C1A142EF00F044EF00F04FEF00F0B4
:10008800C9A149EF00F04BEF00F04FEF00F06CEC26
:1000980018F04FEF00F015C0F4FF14C0F3FF13C0C1
:1000A800DAFF12C0D9FF11C0FBFF10C0FAFF4A9255
:0600B800110068EF15F0D5
:100F0000000000000000000000000000000000647D
:100F1000010101000000000000000000000000646A
:100F200001000280802000000000011F808020005E
:100F30000000000016C0D9FF17C0DAFFDECF18F09E
:100F4000DECF19F0DECF1AF0DECF1BF018A0ABEF2A
:100F500007F0ADEF07F0B5EF07F0828E030EE82E35
:100F6000FED700F0829EBCEF07F0828E00D000D04A
:100F700000F0829E00D000D0D8901B321A32193275
:100F8000183218A0C6EF07F0C8EF07F0D0EF07F04F
:100F9000828E030EE82EFED700F0829ED7EF07F078
:100FA000828E00D000D000F0829E00D000D0D89079
:100FB0001B321A321932183218A0E1EF07F0E3EFB2
:100FC00007F0EBEF07F0828E030EE82EFED700F05D
:100FD000829EF2EF07F0828E00D000D000F0829E59
:100FE00000D000D0D8901B321A321932183218A013
:100FF000FCEF07F0FEEF07F006EF08F0828E030E1D
:10100000E82EFED700F0829E0DEF08F0828E00D011
:1010100000D000F0829E00D000D0D8901B321A324F
:101020001932183218A017EF08F019EF08F021EF65
:1010300008F0828E030EE82EFED700F0829E28EF85
:1010400008F0828E00D000D000F0829E00D000D048
:10105000D8901B321A321932183218A032EF08F029
:1010600034EF08F03CEF08F0828E030EE82EFED736
:1010700000F0829E43EF08F0828E00D000D000F096
:10108000829E00D000D0D8901B321A32193218320A
:1010900018A04DEF08F04FEF08F057EF08F0828EE0
:1010A000030EE82EFED700F0829E5EEF08F0828EDF
:1010B00000D000D000F0829E00D000D0D8901B322B
:1010C0001A321932183218A068EF08F06AEF08F0E7
:1010D00072EF08F0828E030EE82EFED700F0829E9B
:1010E00079EF08F0828E00D000D000F0829E00D010
:1010F00000D0D8901B321A321932183218A083EF60
:1011000008F085EF08F08DEF08F0828E030EE82ED0
:10111000FED700F0829E94EF08F0828E00D000D0BF
:1011200000F0829E00D000D0D8901B321A321932C3
:10113000183218A09EEF08F0A0EF08F0A8EF08F012
:10114000828E030EE82EFED700F0829EAFEF08F0ED
:10115000828E00D000D000F0829E00D000D0D890C7
:101160001B321A321932183218A0B9EF08F0BBEF4F
:1011700008F0C3EF08F0828E030EE82EFED700F0D1
:10118000829ECAEF08F0828E00D000D000F0829ECE
:1011900000D000D0D8901B321A321932183218A061
:1011A000D4EF08F0D6EF08F0DEEF08F0828E030EE1
:1011B000E82EFED700F0829EE5EF08F0828E00D088
:1011C00000D000F0829E00D000D0D8901B321A329E
:1011D0001932183218A0EFEF08F0F1EF08F0F9EF2C
:1011E00008F0828E030EE82EFED700F0829E00EFFC
:1011F00009F0828E00D000D000F0829E00D000D096
:10120000D8901B321A321932183218A00AEF09F09E
:101210000CEF09F014EF09F0828E030EE82EFED7D2
:1012200000F0829E1BEF09F0828E00D000D000F00B
:10123000829E00D000D0D8901B321A321932183258
:1012400018A025EF09F027EF09F02FEF09F0828EA3
:10125000030EE82EFED700F0829E36EF09F0828E54
:1012600000D000D000F0829E00D000D0D8901B3279
:101270001A321932183218A040EF09F042EF09F083
:101280004AEF09F0828E030EE82EFED700F0829E10
:1012900051EF09F0828E00D000D000F0829E00D085
:1012A00000D0D8901B321A321932183218A05BEFD6
:1012B00009F05DEF09F065EF09F0828E030EE82E6C
:1012C000FED700F0829E6CEF09F0828E00D000D035
:1012D00000F0829E00D000D0D8901B321A32193212
:1012E000183218A076EF09F078EF09F080EF09F0D6
:1012F000828E030EE82EFED700F0829E87EF09F063
:10130000828E00D000D000F0829E00D000D0D89015
:101310001B321A321932183218A091EF09F093EFEC
:1013200009F09BEF09F0828E030EE82EFED700F045
:10133000829EA2EF09F0828E00D000D000F0829E43
:1013400000D000D0D8901B321A321932183218A0AF
:10135000ACEF09F0AEEF09F0B6EF09F0828E030EA4
:10136000E82EFED700F0829EBDEF09F0828E00D0FD
:1013700000D000F0829E00D000D0D8901B321A32EC
:101380001932183218A0C7EF09F0C9EF09F0D1EFF0
:1013900009F0828E030EE82EFED700F0829ED8EF71
:1013A00009F0828E00D000D000F0829E00D000D0E4
:1013B000D8901B321A321932183218A0E2EF09F015
:1013C000E4EF09F0ECEF09F0828E030EE82EFED771
:1013D00000F0829EF3EF09F0828E00D000D000F082
:1013E000829E00D000D0D8901B321A3219321832A7
:1013F00018A0FDEF09F0FFEF09F007EF0AF0828E69
:10140000030EE82EFED700F0829E0EEF0AF0828EC9
:1014100000D000D000F0829E00D000D0D8901B32C7
:101420001A321932183218A018EF0AF01AEF0AF01F
:1014300022EF0AF0828E030EE82EFED700F0829E85
:1014400029EF0AF0828E00D000D000F0829E00D0FA
:1014500000D0D8901B321A321932183212001D6E89
:101460001D50020D350EF324D96E000EF420DA6EF5
:10147000390E1D24E16EE26A000EE222E7CF18F079
:10148000010EE7261850020DF3CF19F0F4CF1AF031
:101490001D50060D600E1B6E000E1C6EF3501B26B9
:1014A000F4501C2219501B24E16E1A501C20E26ECD
:1014B000DECFE6FFDDCFE5FF390E1D24D96EDA6AF7
:1014C000000EDA22020EDF6468EF0AF06AEF0AF01B
:1014D00072EF0AF0390E1D24D96EDA6A000EDA2294
:1014E000000EDF6E1D50060D620EF324D96E000E45
:1014F000F420DA6E1D50060D600EF324E16E000E2E
:10150000F420E26EDE50E65CDE50E658D8A08BEFA9
:101510000AF08DEF0AF0EDEF0AF01D50060D640E93
:10152000F324D96E000EF420DA6E1D50060D620E03
:10153000F324E16E000EF420E26EDE50E65CDE5035
:10154000E658D8A0A6EF0AF0A8EF0AF0B6EF0AF026
:101550001D50060D620EF324D96E000EF420DA6ED3
:10156000DECF16F0DDCF17F027EF0BF01D50060D84
:10157000640EF324D96E000EF420DA6E1D50060DB1
:10158000600EF324E16E000EF420E26EDE50E65CA5
:10159000DE50E658D8A0CFEF0AF0D1EF0AF0DFEF27
:1015A0000AF01D50060D640EF324D96E000EF420CF
:1015B000DA6EDECF16F0DDCF17F027EF0BF01D50FF
:1015C000060D600EF324D96E000EF420DA6EDECF25
:1015D00016F0DDCF17F027EF0BF01D50060D640E4F
:1015E000F324D96E000EF420DA6E1D50060D600E45
:1015F000F324E16E000EF420E26EDE50E65CDE5075
:10160000E658D8A006EF0BF008EF0BF00AEF0BF04E
:10161000DFEF0AF01D50060D640EF324D96E000EA4
:10162000F420DA6E1D50060D620EF324E16E000EFA
:10163000F420E26EDE50E65CDE50E658D8A023EFE0
:101640000BF025EF0BF0A8EF0AF0D1EF0AF0120033
:10165000000E266E000E256E000E276E3C50020D09
:10166000F3CF1AF0F4CF1BF02750060D600E1C6E5E
:10167000000E1D6EF3501C26F4501D221A501C241F
:10168000D96E1B501D20DA6EDECF1EF0DDCF1FF0AD
:101690002750020D350EF324D96E000EF420DA6EB9
:1016A000DECF20F0DDCF21F01E50205C166E1F50E3
:1016B0002158176E8DEC18F016C023F017C024F0D7
:1016C0002350255C24502658D8B069EF0BF06BEFFF
:1016D0000BF06FEF0BF023C025F024C026F0272A73
:1016E000010E276476EF0BF078EF0BF02EEF0BF086
:1016F000265009E1650E255CD8A081EF0BF083EF41
:101700000BF0F7EF0BF06C0E3C24D96EDA6A000E8A
:10171000DA22DF2A050EDF6490EF0BF092EF0BF078
:1017200017EF0CF0E60E3C24D96EDA6A000EDA22CE
:10173000DF50286E080E2864A0EF0BF0A2EF0BF02C
:10174000A7EF0BF02850F80F286EA9EF0BF0780EDA
:10175000286E010E226E000E296E3C502918D8A466
:10176000B4EF0BF0B6EF0BF0B8EF0BF0C9EF0BF0E6
:10177000E60E2924D96EDA6A000EDA222850DE1825
:10178000D8A4C5EF0BF0C7EF0BF0C9EF0BF0000EBC
:10179000226E292A020E2964D0EF0BF0D2EF0BF053
:1017A000ADEF0BF02250D8B4D8EF0BF0DAEF0BF01E
:1017B0009AEF0BF0E60E3C24D96EDA6A000EDA22BC
:1017C00028C0DFFF000E296E6C0E2924D96EDA6A5C
:1017D000000EDA22000EDF6E292A020E2964F3EFD2
:1017E0000BF0F5EF0BF0E4EF0BF017EF0CF02650D9
:1017F00007E1320E255CD8B000EF0CF002EF0CF0E0
:1018000017EF0CF06C0E3C24D96EDA6A000EDA2267
:10181000DF50D8B40EEF0CF010EF0CF017EF0CF017
:101820006C0E3C24D96EDA6A000EDA22DF06120052
:101830000001CB6FEDEF0CF019EC1CF058EC1BF035
:1018400016C0CCF017C0CDF0000E176E000E166E4D
:101850007DEC1AF0000E0001726F858AA50ECC5D3A
:10186000B50ECD59D8A037EF0CF039EF0CF047EF9B
:101870000CF00CEC13F016C0B4F017C0B5F018C0A3
:10188000B6F0C8EC13F09EEC15F003EF0DF07151BB
:10189000D8B44DEF0CF04FEF0CF053EF0CF0010EFD
:1018A0006F6F03EF0DF07051D8B459EF0CF05BEF90
:1018B0000CF06DEF0CF0000E706F060E7319D8A4CB
:1018C00064EF0CF066EF0CF06AEF0CF0000E736F33
:1018D00077EF0CF0732B77EF0CF0080EEC19D8B4FF
:1018E00074EF0CF076EF0CF077EF0CF0EC2B0CECC7
:1018F00013F016C0B4F017C0B5F018C0B6F0C8ECBD
:1019000013F09EEC15F003EF0DF017EC1CF048EC13
:101910001BF016C0CCF017C0CDF0000E176E000EF5
:10192000166E69EC1AF0000E0001716F8384A50E2B
:10193000CC5DB50ECD59D8A0A0EF0CF0A2EF0CF005
:10194000B0EF0CF00CEC13F016C0B4F017C0B5F00B
:1019500018C0B6F0C8EC13F09EEC15F003EF0DF0D4
:101960007251D8B4B6EF0CF0B8EF0CF0BCEF0CF03D
:10197000010E706F03EF0DF06F51D8B4C2EF0CF091
:10198000C4EF0CF0D6EF0CF0000E6F6F060E73195B
:10199000D8A4CDEF0CF0CFEF0CF0D3EF0CF0000E8D
:1019A000736FDFEF0CF0732BDFEF0CF0EC51D8B45A
:1019B000DCEF0CF0DEEF0CF0DFEF0CF0EC070CECE2
:1019C00013F016C0B4F017C0B5F018C0B6F0C8ECEC
:1019D00013F09EEC15F003EF0DF00001CB51C96F31
:1019E000CA6BCA51000AD8B4F8EF0CF003EF0DF03F
:1019F000C951000AD8B41CEF0CF0010AD8B485EF25
:101A00000CF003EF0DF01200000E1D6E000EF2BE82
:101A1000010E1C6E1EEF0DF0402A020E4018D8A4D5
:101A200014EF0DF016EF0DF01EEF0DF0000E406EEE
:101A3000000E3F6E010E1D6E34EF0DF04050ECECC9
:101A400018F00009D8A427EF0DF029EF0DF00CEFE6
:101A50000DF04050CDEC18F00009D8B432EF0DF085
:101A600034EF0DF00CEF0DF01D50D8A43AEF0DF04F
:101A70003CEF0DF0CEEF0DF04050090D940EF32425
:101A80001E6E000EF4201F6E1EC016F01FC017F051
:101A900038EC1BF00009D8B450EF0DF052EF0DF008
:101AA00065EF0DF020EE03F01E50D9261F50DA220C
:101AB000DF500F01576F20EE02F01E50D9261F5045
:101AC000DA22DF50596F8BEF0DF01EC016F01FC0E9
:101AD00017F028EC1BF00009D8B471EF0DF073EF8C
:101AE0000DF086EF0DF020EE02F01E50D9261F50AB
:101AF000DA22DF500F01596F20EE03F01E50D92675
:101B00001F50DA22DF50576F8BEF0DF0C00E0F0120
:101B1000596FC00E576F3B50592720EE01F01E50F1
:101B2000D9261F50DA22DF505A6F20EE04F01E50E3
:101B3000D9261F50DA22DF501A6ED8901A30616E03
:101B400020EE05F01E50D9261F50DA22DF50586FC4
:101B50005B8F010E3F6E010E166E40506AEC17F05F
:101B6000F29E0F015B8120EE04F01E50D9261F501B
:101B7000DA22DF501A6E1B6A090ED8901A361B360D
:101B8000E82EBDEF0DF01AC06BFF1BC06CFF1CB040
:101B900002D0F29E01D0F28E000E3E6E1200000EB8
:101BA000086E000EF2BE010E076EE9EF0DF0402A3E
:101BB000020E4018D8A4DFEF0DF0E1EF0DF0E9EFD1
:101BC0000DF0000E406E000E3F6E010E086EFFEF2E
:101BD0000DF040502AEC19F00009D8A4F2EF0DF0F6
:101BE000F4EF0DF0D7EF0DF0405049EC19F000097B
:101BF000D8B4FDEF0DF0FFEF0DF0D7EF0DF008506A
:101C0000D8A405EF0EF007EF0EF099EF0EF040505C
:101C1000090D940EF324096E000EF4200A6E09C01B
:101C200001F00AC002F068EC1BF00009D8B41BEF09
:101C30000EF01DEF0EF030EF0EF020EE03F0095025
:101C4000D9260A50DA22DF500F01576F20EE02F03A
:101C50000950D9260A50DA22DF50596F56EF0EF09C
:101C600009C001F00AC002F078EC1BF00009D8B4FA
:101C70003CEF0EF03EEF0EF051EF0EF020EE02F0D2
:101C80000950D9260A50DA22DF500F01596F20EE91
:101C900003F00950D9260A50DA22DF50576F56EF69
:101CA0000EF0C00E0F01596FC00E576F3B505927F1
:101CB00020EE01F00950D9260A50DA22DF505A6F7F
:101CC00020EE04F00950D9260A50DA22DF50056EC2
:101CD000D8900530616E20EE05F00950D9260A50E3
:101CE000DA22DF50586F5B8F010E3F6E010E016EDE
:101CF0004050B8EC17F0F29E0F015B8120EE04F02B
:101D00000950D9260A50DA22DF50056E066A090EFC
:101D1000D89005360636E82E88EF0EF005C06BFF2A
:101D200006C06CFF07B002D0F29E01D0F28E000E0A
:101D30003E6E1200000120EE0EF0CE51D926CF519A
:101D4000DA22DF500008D06F20EE09F0CE51D926FC
:101D5000CF51DA22DE50800AD26FD051800AD25D94
:101D6000D8B0B5EF0EF0B7EF0EF0E5EF0EF020EEC5
:101D70000AF0CE51D926CF51DA22DE2A000EDD221A
:101D800020EE0AF0CE51D926CF51DA22010EDB50D7
:101D900009E1210EDE5CD8A0D0EF0EF0D2EF0EF0FC
:101DA00033EF0FF020EE0AF0CE51D926CF51DA22D0
:101DB000000EDE6E000EDD6ECEC0D9FFCFC0DAFFA2
:101DC000DF502FEC15F033EF0FF020EE09F0CE517D
:101DD000D926CF51DA22DF50D06F20EE0EF0CE514F
:101DE000D926CF51DA22DF50D16FD151D880D88493
:101DF000D0AFD05DD8A0D884D8B401EF0FF003EFF6
:101E00000FF029EF0FF020EE02F0CE51D926CF517E
:101E1000DA22020EDF6E20EE0AF0CE51D926CF5123
:101E2000DA22000EDE6E000EDD6E02D827EF0FF014
:101E30000500FA6EE351FD6EE451FE6EE551FF6E52
:101E4000FA50CEC0D9FFCFC0DAFFDF50120033EF17
:101E50000FF020EE0AF0CE51D926CF51DA22000E33
:101E6000DE6E000EDD6E000120EE0CF0CE51D926A4
:101E7000CF51DA22DE2A000EDD2220EE0CF0CE5108
:101E8000D926CF51DA22400EDE18DE10D8A44BEF4F
:101E90000FF04DEF0FF05DEF0FF020EE0CF0CE5194
:101EA000D926CF51DA22000EDE6E000EDD6ECEC0D6
:101EB00016F0CFC017F097EC10F0120005C0D9FF54
:101EC00006C0DAFFDF500B6E05C001F006C002F05D
:101ED00078EC1BF00009D8A470EF0FF072EF0FF050
:101EE000A4EF0FF020EE04F00550D9260650DA22B8
:101EF000DF50076E086A090ED89007360836E82EBC
:101F00007CEF0FF06D50075C6E500858D8B08BEF27
:101F10000FF08DEF0FF09CEF0FF020EE05F0055065
:101F2000D9260650DA22DF2A1E0EDF649AEF0FF060
:101F30009CEF0FF001EF10F005C001F006C002F0B9
:101F400027EC1AF001EF10F020EE04F00550D9262E
:101F50000650DA22DF50076E086AD8900736083636
:101F60000B50020D350EF324D96E000EF420DA6EFC
:101F7000DECF09F0DDCF0AF06D50095C016E6E50C6
:101F80000A58026EADEC18F00750015C0850025878
:101F9000D8B0CDEF0FF0CFEF0FF0DFEF0FF020EE66
:101FA00002F00550D9260650DA22C00EDF6E05C0B9
:101FB00001F006C002F088EC1BF001EF10F020EEFB
:101FC00003F00550D9260650DA22AF0EDF64EBEF9E
:101FD0000FF0EDEF0FF0F7EF0FF020EE02F00550ED
:101FE000D9260650DA22C00EDF6ED7EF0FF020EEB2
:101FF00003F00550D9260650DA22100EDF2601EF35
:1020000010F0120020EE05F01650D9261750DA22F3
:10201000DECF18F0DECF19F0DECF1AF0DECF1BF0E6
:10202000050E18EF10F0D8901B321A321932183200
:10203000E82E13EF10F020EE03F01650D9261750BB
:10204000DA22DECF1CF0DDCF1DF01C501E6E1D50BD
:102050001F6E206A216A18501E5C226E19501F588C
:10206000236E1A502058246E1B502158256E20EEE6
:102070000FF01650D9261750DA22DF50186E22C002
:1020800019F023C01AF024C01BF025C01CF01866FC
:102090004CEF10F054EF10F01C341C321B321A328B
:1020A0001932182E47EF10F019C022F01AC023F091
:1020B0001BC024F01CC025F025BE6AEF10F025508F
:1020C0002410231009E1800E225CD8A06AEF10F0E2
:1020D0006CEF10F074EF10F07F0E226E000E236E86
:1020E000000E246E000E256E25AE84EF10F0800EDB
:1020F000225CFF0E2358FF0E2458FF0E2558D8B03F
:1021000084EF10F086EF10F08EEF10F0800E226E4C
:10211000FF0E236EFF0E246EFF0E256E20EE09F0DB
:102120001650D9261750DA2222C0DFFF1200F2AE75
:102130009CEF10F09EEF10F0E0EF10F0F29E20EE1A
:1021400005F01650D9261750DA22DECF18F0DECF70
:1021500019F0DECF1AF0DECF1BF0050EB5EF10F050
:10216000D8901B321A3219321832E82EB0EF10F024
:1021700020EE05F01650D9261750DA221850DE5EF0
:102180001950DE5A1A50DE5A1B50DE5A20EE03F068
:102190001650D9261750DA22DECF18F0DDCF19F00D
:1021A00020EE05F01650D9261750DA221850DE26F8
:1021B0001950DE22000EDE22DE22F28E1EEF11F01A
:1021C00020EE05F01650D9261750DA22DECF18F08F
:1021D000DECF19F0DECF1AF0DECF1BF0050EF6EFE2
:1021E00010F0D8901B321A3219321832E82EF1EF63
:1021F00010F020EE05F01650D9261750DA221850AC
:10220000DE5E1950DE5A1A50DE5A1B50DE5A20EE9E
:1022100003F01650D9261750DA22DECF18F0DDCFA2
:1022200019F020EE05F01650D9261750DA22185072
:10223000DE261950DE22000EDE22DE221200000110
:1022400020EE0AF0CE51D926CF51DA22E80EDE5C1C
:10225000030EDE58D8A02FEF11F031EF11F04CEF44
:1022600011F0CEC0D9FFCFC0DAFFDF502FEC15F050
:1022700002D84AEF11F00500FA6E4750FD6E485043
:10228000FE6E4950FF6EFA50CEC0D9FFCFC0DAFFC4
:10229000DF501200A2EF11F020EE0EF0CE51D92641
:1022A000CF51DA22DF50D06FD890D03320EE0EF02D
:1022B000CE51D926CF51DA22DF50D16FD051D15D26
:1022C000D26F20EE09F0CE51D926CF51DA22DE505E
:1022D000800AD46FD251800AD45DD8B072EF11F069
:1022E00074EF11F0A2EF11F020EE02F0CE51D926DA
:1022F000CF51DA22010EDF6E20EE0AF0CE51D92640
:10230000CF51DA22000EDE6E000EDD6E20EE0CF0F4
:10231000CE51D926CF51DA22FF0EDE6EFB0EDD6ED6
:1023200002D8A2EF11F00500FA6E4750FD6E48503A
:10233000FE6E4950FF6EFA50CEC0D9FFCFC0DAFF13
:10234000DF5012001200000E016E4050B8EC17F082
:102350003E50D8B4AEEF11F0B0EF11F0B4EF11F081
:102360000F015B9F23EF12F00F015B9F4050090D9F
:10237000940EF3240E6E000EF4200F6E0EC001F0CA
:102380000FC002F068EC1BF00009D8A4CAEF11F0EE
:10239000CCEF11F0D4EF11F00EC005F00FC006F035
:1023A0005EEC0FF0DAEF11F00EC001F00FC002F09A
:1023B000D5EC1BF04050020D350EF324D96E000E03
:1023C000F420DA6EDECF0CF0DDCF0DF06D500C5C3A
:1023D000016E6E500D58026EADEC18F0025009E11E
:1023E000650E015CD8A0F7EF11F0F9EF11F005EFE1
:1023F00012F04050090D9C0EF324D96E000EF4200B
:10240000DA6E0001DF840FEF12F04050090D9C0ED0
:10241000F324D96E000EF420DA6E0001DF943D50F3
:10242000D8A415EF12F017EF12F023EF12F040507E
:10243000020D350EF324D96E000EF420DA6E6DCF46
:10244000DEFF6ECFDDFFCFEC0DF012000001D66F86
:102450000001D651100D740EF324D76F000EF42036
:10246000D86F20EE01F0D751D926D851DA22DF50AB
:10247000ECEC18F00009D8B440EF12F042EF12F083
:1024800098EF12F0000120EE01F0D751D926D85173
:10249000DA22DF500BEC19F00009D8B452EF12F039
:1024A00054EF12F098EF12F0D7C01DF0D8C01EF014
:1024B0000FEC1AF0D7C016F0D8C017F002EC10F0ED
:1024C000000120EE02F0D751D926D851DA22020EAF
:1024D000DF646DEF12F06FEF12F076EF12F0D7C0FD
:1024E000D9FFD8C0DAFFDF502FEC15F0D7C0CEF0FF
:1024F000D8C0CFF0000120EE02F0D751D926D85134
:10250000DA22DF50D56FD551030DDA0EF324D96EE0
:10251000000EF420DA6E02D898EF12F00500FA6E81
:10252000DE50FD6EDE50FE6EDE50FF6EFA50120081
:102530001200000120EE0AF0CE51D926CF51DA2246
:10254000010EDB5007E1090EDE5CD8B0AAEF12F0F5
:10255000ACEF12F0B4EF12F0CEC019F0CFC01AF009
:102560006AEC16F0BAEF12F0CEC016F0CFC017F03A
:1025700097EC10F0000120EE0AF0CE51D926CF5191
:10258000DA22DE2A000EDD2220EE0AF0CE51D92614
:10259000CF51DA22010EDB5009E1100EDE5CD8A02B
:1025A000D4EF12F0D6EF12F00BEF13F020EE05F09F
:1025B000CE51D926CF51DA22DECFD0F0DECFD1F006
:1025C000DECFD2F0DECFD3F0050EECEF12F0D890D4
:1025D000D333D233D133D033E82EE7EF12F020EEED
:1025E00003F0CE51D926CF51DA22D0C0DEFFD1C0C0
:1025F000DDFF20EE02F0CE51D926CF51DA22010EB6
:10260000DF6E20EE0AF0CE51D926CF51DA22000E2D
:10261000DE6E000EDD6E120046EF13F0000E166E39
:10262000000E176EFF0E186E70EF13F0000E166E90
:10263000FF0E176E000E186E70EF13F0FF0E166E81
:10264000000E176E000E186E70EF13F0000E166E6F
:10265000FF0E176EFF0E186E70EF13F0FF0E166E62
:10266000FF0E176E000E186E70EF13F0FF0E166E51
:10267000000E176EFF0E186E70EF13F0FF0E166E41
:10268000FF0E176EFF0E186E70EF13F000017351FE
:10269000196E1A6A1A50000AD8B451EF13F00EEFEF
:1026A00013F01950000AD8B40EEF13F0010AD8B491
:1026B00016EF13F0030AD8B41EEF13F0010AD8B4D2
:1026C00026EF13F0070AD8B42EEF13F0010AD8B49E
:1026D00036EF13F0030AD8B43EEF13F00EEF13F009
:1026E000120020EE02F01950D9261A50DA22DF50DB
:1026F000D8B47DEF13F07FEF13F0B4EF13F020EEBA
:1027000003F01950D9261A50DA22DECF1BF0DDCFA4
:102710001CF0D8901C321B32D8901C321B3220EE99
:1027200003F01950D9261A50DA221B50DE5E1C50D5
:10273000DD5A20EE01F01950D9261A50DA22DF5066
:10274000BEEC19F0D89017321632D89017321632E4
:1027500020EE03F01950D9261A50DA221650DE2640
:102760001750DD22C7EF13F020EE01F01950D926E3
:102770001A50DA22DF50BEEC19F020EE03F01950A7
:10278000D9261A50DA2216C0DEFF17C0DDFF12006C
:10279000E5EF13F0000E17EF14F0050E17EF14F02D
:1027A0000A0E17EF14F00F0E17EF14F0140E17EFB8
:1027B00014F0190E17EF14F01E0E17EF14F0230E7D
:1027C00017EF14F0280E17EF14F00001EC51166EFD
:1027D000176A1750000AD8B4F0EF13F0CDEF13F0DA
:1027E0001650000AD8B4CAEF13F0010AD8B4CDEFDE
:1027F00013F0030AD8B4D0EF13F0010AD8B4D3EF22
:1028000013F0070AD8B4D6EF13F0010AD8B4D9EF01
:1028100013F0030AD8B4DCEF13F0010AD8B4DFEFE9
:1028200013F00F0AD8B4E2EF13F0CDEF13F012005B
:10283000186E50EF14F01DEC1CF0010E0001726FC9
:10284000080EEC19D8B427EF14F029EF14F02AEF92
:1028500014F0859A7151D8B430EF14F032EF14F0BF
:1028600065EF14F08394859A65EF14F01BEC1CF06F
:10287000010E0001716FEC51D8B441EF14F043EF39
:1028800014F044EF14F083947251D8B44AEF14F06A
:102890004CEF14F065EF14F0859A839465EF14F013
:1028A0001850166E176A1750000AD8B45AEF14F071
:1028B00065EF14F01650000AD8B41BEF14F0010AAB
:1028C000D8B436EF14F065EF14F01200326EA6C0E3
:1028D00019F0A7C01AF0A8C01BF0A9C01CF0325014
:1028E0000001AC6FAD6BD890AC37AD37D890AC373A
:1028F000AD37AAC0AEF0ABC0AFF0AC51AE27AD5112
:10290000AF23FC0EAE251D6EFF0EAF211E6EACEC8C
:1029100014F0000E336E3350040DF3CFACF0F4CF4F
:10292000ADF00001AC51AA25166EAD51AB21176E6A
:102930009AEC07F0332A0F0E3364A1EF14F0A3EFE3
:1029400014F08BEF14F0AAC016F0ABC017F09AEC9D
:1029500007F0BBEC1BF012001B5018EC17F01F6EB9
:102960001FC020F0216A226A236A22C023F021C0FE
:1029700022F020C021F0206A195018EC17F0246EC4
:1029800024C025F0266A276A286A26C028F025C0B8
:1029900027F0266A256A20502510296E215026101E
:1029A0002A6E225027102B6E235028102C6E1A509E
:1029B00018EC17F02D6E2D5029102E6E2A502F6E08
:1029C0002B50306E2C50316E1DC0D9FF1EC0DAFF67
:1029D0002EC0DEFF2FC0DEFF30C0DEFF31C0DEFFC5
:1029E0001200000E866E000E856E000E826E000EC6
:1029F000836E000E846E070E8B6E7F0E876EFB0E4D
:102A0000886E8968DF0E8A6EDF0E0F01216F1C69E8
:102A1000FB0E146F070E296F7F0E0C6F000E206FD8
:102A2000000E286F000E136F000E0B6F000E1B6F51
:102A3000000E276F000E0A6F000E126F000E1A6F45
:102A4000000E1F6F0969116919691E69070E266F4B
:102A50000869106918691D690F0E256F1200176E3D
:102A60001750100D740EF324186E000EF420196E1A
:102A700020EE02F01850D9261950DA22000EDF6E2F
:102A800020EE05F01850D9261950DA22DE6ADE6AE7
:102A9000DE6ADD6A20EE0AF01850D9261950DA22D3
:102AA000000EDE6E000EDD6E20EE0CF01850D92602
:102AB0001950DA22000EDE6E000EDD6E20EE01F0FF
:102AC0001850D9261950DA22DF50A5EC1AF012005E
:102AD000620EF66E370EF76E000EF86E00EEDAF04C
:102AE00010EE13F00900F5CFEEFFE550E150FAE1EA
:102AF000420EF66E380EF76E000EF86E0900F5CF36
:102B000047F00900F5CF48F00900F5CF49F001EE94
:102B100000F0400EEE6AE806FDE100EE60F0460EC1
:102B2000EE6AE806FDE100EE35F00E0EEE6AE8060C
:102B3000FDE14A904A920001F5EF19F00001C86FDB
:102B40000001C851B76FB86BB96BC851BB6FBA6B96
:102B5000C851BE6FBD6BBC6BBA51BC11BF6FBB51CE
:102B6000BD11C06F000EBBBFFF0EBE11C16FB751CC
:102B7000BF11C26FB851C011C36FB951C111C46F39
:102B8000B451C215C56FB551C315C66FB651C41542
:102B9000C76FC551B06FC651B16FC751B26FB36B3C
:102BA000A2EC19F01200000E656E000E666E000EAB
:102BB000676E000E686E000E636E000E646E000E8F
:102BC000616E000E0F015A6F000E586F000E596FA4
:102BD000000E546F100E556F000E566F000E606E93
:102BE000000E536F000E516F000E526F840E5B6F1C
:102BF000000E576F0E01C693BE834E0E166E380E32
:102C0000176E000E186EEBEC1BF0120020EE02F0B7
:102C10001650D9261750DA22020EDE18D8A413EF68
:102C200016F015EF16F037EF16F020EE0AF01650FA
:102C3000D9261750DA22DE2A000EDD2220EE0AF015
:102C40001650D9261750DA22DE50DE10D8A42BEF0A
:102C500016F02DEF16F037EF16F020EE0AF01650B2
:102C6000D9261750DA22FF0EDE6EFF0EDD6E12003F
:102C7000000E206E2050ECEC18F00009D8A443EFB1
:102C800016F045EF16F05FEF16F02050CDEC18F07F
:102C90000009D8B44EEF16F050EF16F05FEF16F0C3
:102CA00015EC1CF00009D8A458EF16F05AEF16F0F6
:102CB0005CEF16F004EC0DF0000E69EF16F0202A20
:102CC000010E206466EF16F068EF16F03AEF16F08A
:102CD000010E120020EE01F01950D9261A50DA2206
:102CE000DF50BEEC19F016501B6E17501C6E1D6A9B
:102CF0001E6A20EE05F01950D9261A50DA221BC0A0
:102D0000DEFF1CC0DEFF1DC0DEFF1EC0DEFF20EEAA
:102D100005F01950D9261A50DA22040ED890DE3662
:102D2000DE36DE36DD36DD52DD52E82E8EEF16F071
:102D300012001EC0D9FF1FC0DAFFDF502FEC0AF0CF
:102D400016C020F017C021F0F2AEA9EF16F0ABEFDD
:102D500016F0B9EF16F0F29E20EE06F01E50D926BE
:102D60001F50DA2220C0DEFF21C0DDFFF28EC3EF4C
:102D700016F020EE06F01E50D9261F50DA2220C091
:102D8000DEFF21C0DDFF120018C01EF019C01FF0C9
:102D900016C01CF017C01DF0E1EF16F01EC0F6FFC4
:102DA0001FC0F7FF000EF86E0800F5CF20F01E4A96
:102DB0001F2A1CC0D9FF1DC0DAFF20C0DFFF1C4A3C
:102DC0001D2A1A06D8A01B061A2806E11B28D8A41B
:102DD000ECEF16F0EEEF16F0CEEF16F01200000E4C
:102DE000226E2250090D9C0EF324D96E000EF420A1
:102DF000DA6E0001DFA2FFEF16F001EF17F00EEF21
:102E000017F02250090D940EF3241E6E000EF420CC
:102E10001F6E99EC16F0225023EC1CF0222A010EB2
:102E2000226415EF17F017EF17F0F1EF16F012000C
:102E3000186E18C016F00F0E1616163AF00E16166B
:102E400018380F0B0F0B1610186E18C016F0330E33
:102E50001616D8901636D89016361840E8423F0B12
:102E6000330B1610186E18C016F0550E1616D890A3
:102E70001634176ED8901830550B1710186E18505E
:102E80001200940E186E000E196E1950000802E11F
:102E900018509D08D8B04FEF17F051EF17F053EFCF
:102EA00017F069EF17F018C016F019C017F0CDEC45
:102EB0001BF0090E1826000E19221950000802E115
:102EC00018509D08D8B067EF17F069EF17F053EF6F
:102ED00017F01200196E7BEF17F016B002D087942E
:102EE00001D0878490EF17F016B002D08A9E01D0EF
:102EF0008A8E90EF17F01950176E186A1850000A52
:102F0000D8B485EF17F090EF17F01750000AD8B437
:102F10006DEF17F0010AD8B474EF17F090EF17F0C7
:102F200012001F0E0F01526F000E536F000E586FEC
:102F3000000E656E000E666E000E676E000E686E07
:102F4000000E636E000E646E410E546F8B0E556F53
:102F50000F0E566FC40E5B6F0E01C693BE830A0E32
:102F6000166E380E176E000E186EEBEC1BF012008A
:102F7000046EC9EF17F001B002D0879401D08784A6
:102F8000DEEF17F001B002D08A9E01D08A8EDEEF0C
:102F900017F00450026E036A0350000AD8B4D3EF4E
:102FA00017F0DEEF17F00250000AD8B4BBEF17F0AD
:102FB000010AD8B4C2EF17F0DEEF17F0120041504B
:102FC000D8B4E5EF17F0E7EF17F0EBEF17F0C4EC2C
:102FD0001BF0000E416E010E426EE1EC1AF000098A
:102FE000D8A4F5EF17F0F7EF17F0FAEF17F0000E8F
:102FF00004EF18F006EC1BF013EC1CF0426E41ECF1
:1030000017F00DEC1CF0010E1200000EC96E000E40
:10301000CA6E040ECB6E0D0EC76ED00EC66E0E01BC
:10302000C995C650C7CF19F01A6A19C01AF0196AA3
:103030001910436E1A50446EC1854A0E166E380E32
:10304000176E000E186EDDEC1BF0100EC86E12002D
:10305000000ECF6E000ED06E040ED16E0D0ECD6E32
:10306000D00ECC6E0E01C991CC50CDCF19F01A6A9A
:1030700019C01AF0196A1910456E1A50466EC181AE
:103080004C0E166E380E176E000E186EE4EC1BF028
:10309000100ECE6E12000E01C99543C001F044C05F
:1030A00002F0B9EC1AF00001ED51EE11EF11D8B4B5
:1030B0005CEF18F05EEF18F06BEF18F002D86BEFD2
:1030C00018F00500FA6EED51FD6EEE51FE6EEF51F7
:1030D000FF6EFA50120012000E01C99145C001F0B6
:1030E00046C002F0CDEC1AF00001F051F111F211DE
:1030F000D8B47DEF18F07FEF18F08CEF18F002D8FD
:103100008CEF18F00500FA6EF051FD6EF151FE6E75
:10311000F251FF6EFA501200120017BE9AEF18F02B
:10312000175006E11604D8B098EF18F09AEF18F08F
:10313000A8EF18F016C018F017C019F0181E191EC5
:10314000184A192A18C016F019C017F0ACEF18F079
:1031500016C016F017C017F0120002BEBAEF18F032
:10316000025006E10104D8B0B8EF18F0BAEF18F039
:10317000C8EF18F001C003F002C004F0031E041EE3
:10318000034A042A03C001F004C002F0CCEF18F097
:1031900001C001F002C002F01200166E020E1660AD
:1031A000D4EF18F0D6EF18F0EAEF18F01650090D2A
:1031B0009C0EF324D96E000EF420DA6E0001DFB00D
:1031C000E4EF18F0E7EF18F0010EE8EF18F0000E4A
:1031D000EBEF18F0000E1200166E020E1660F3EF01
:1031E00018F0F5EF18F009EF19F01650090D9C0EC4
:1031F000F324D96E000EF420DA6E0001DFB203EF83
:1032000019F006EF19F0010E07EF19F0000E0AEFA2
:1032100019F0000E1200166E020E166012EF19F071
:1032200014EF19F028EF19F01650090D9C0EF32435
:10323000D96E000EF420DA6E0001DFB622EF19F02D
:1032400025EF19F0010E26EF19F0000E29EF19F005
:10325000000E1200016E020E016031EF19F033EF23
:1032600019F047EF19F00150090D9C0EF324D96EA7
:10327000000EF420DA6E0001DFB241EF19F044EFE6
:1032800019F0010E45EF19F0000E48EF19F0000E8D
:103290001200016E020E016050EF19F052EF19F0AA
:1032A00066EF19F00150090D9C0EF324D96E000E43
:1032B000F420DA6E0001DFB060EF19F063EF19F06F
:1032C000010E64EF19F0000E67EF19F0000E120006
:1032D000940E166E000E176E210E186E0F0E196EDC
:1032E000000E1B6E120E1A6EC4EC16F0000E216E4C
:1032F0002150F4EC1AF0212A010E216482EF19F01A
:1033000084EF19F078EF19F01200740E166E000EAB
:10331000176E010E186E0F0E196E000E1B6E200E2A
:103320001A6EC4EC16F0000E216E21502FEC15F031
:10333000212A010E21649FEF19F0A1EF19F095EFFA
:1033400019F01200010E346EB0C0A6F0B1C0A7F0A3
:10335000B2C0A8F0B3C0A9F0000E0001AA6F010E20
:10336000AB6F345066EC14F0342A100E3464BBEFAB
:1033700019F0BDEF19F0A4EF19F01200186E020E4B
:103380001860C5EF19F0C7EF19F0D5EF19F0185014
:10339000090D9A0EF324D96E000EF420DA6EDECFFA
:1033A00016F0DDCF17F0D9EF19F0000E176E000EF2
:1033B000166E12000E01C6930001F351F411F511BF
:1033C000D8B4E5EF19F0E7EF19F0F4EF19F002D8EF
:1033D000F4EF19F00500FA6EF351FD6EF451FE6E34
:1033E000F551FF6EFA501200120017EC1BF0F28E2E
:1033F000F28C300E166E280E176E000E186EF2EC60
:103400001BF0300E166E180E176E000E186EF9ECCB
:103410001BF00AEC1CF009EF1AF05DEF00F0F2AEC1
:1034200014EF1AF016EF1AF020EF1AF0F29E1DC0FA
:1034300019F01EC01AF071EC13F0F28E26EF1AF09C
:103440001DC019F01EC01AF071EC13F0120020EE2E
:1034500008F00150D9260250DA22DF8820EE03F06E
:103460000150D9260250DA22080EDF6E20EE02F05B
:103470000150D9260250DA22C00EDF6E1200000E73
:103480001A6E1A50100D740EF324166E000EF420EE
:10349000176E06EC16F01A2A010E1A6452EF1AF093
:1034A00054EF1AF041EF1AF012003C2A020E3C646D
:1034B0005CEF1AF05EEF1AF060EF1AF0000E3C6E4F
:1034C000E60E3C24D96EDA6A000EDA22DF503B6E3B
:1034D0001200C8A46EEF1AF070EF1AF078EF1AF02D
:1034E000C8901750C76E16C0C6FFC8807CEF1AF090
:1034F0001750C76E16C0C6FF1200CEA482EF1AF096
:1035000084EF1AF08CEF1AF0CE901750CD6E16C0E3
:10351000CCFFCE8090EF1AF01750CD6E16C0CCFFC6
:103520001200166E020E166098EF1AF09AEF1AF05B
:10353000A4EF1AF01650090D9C0EF324D96E000E5C
:10354000F420DA6E0001DF801200166E020E1660A3
:10355000ACEF1AF0AEEF1AF0B8EF1AF01650090DF2
:103560009C0EF324D96E000EF420DA6E0001DF9673
:103570001200C8A4BEEF1AF0C0EF1AF0C8EF1AF09C
:10358000C8900250C76E01C0C6FFC880CCEF1AF0C9
:103590000250C76E01C0C6FF1200CEA4D2EF1AF0CF
:1035A000D4EF1AF0DCEF1AF0CE900250CD6E01C0CD
:1035B000CCFFCE80E0EF1AF00250CD6E01C0CCFF00
:1035C000120038EC16F00009D8A4E9EF1AF0EBEF7E
:1035D0001AF0EEEF1AF0000EF3EF1AF000EC1CF008
:1035E000EFEC16F0010E1200186E185091EC1AF064
:1035F0001850A5EC1AF01850090D940EF324166E0D
:10360000000EF420176ECDEC1BF01200000E00012E
:10361000D96FD95126EC12F00001D92B010ED965D2
:1036200014EF1BF016EF1BF009EF1BF012001FEC5C
:103630001CF097EC1BF0F1EC14F0A5EC1BF0D3ECB4
:1036400015F005EC18F028EC18F0C4EC1BF0120093
:1036500020EE08F01650D9261750DA22DFB833EFE3
:103660001BF036EF1BF0010E37EF1BF0000E1200BF
:1036700020EE08F01650D9261750DA22DFB643EFB5
:103680001BF046EF1BF0010E47EF1BF0000E12007F
:10369000C882C6CF1DF0C7CF1CF01C50186E1D503D
:1036A0001A6E18C01BF01AC016F01BC017F01200DB
:1036B000CE82CCCF1DF0CDCF1CF01C50186E1D500B
:1036C0001A6E18C01BF01AC016F01BC017F01200BB
:1036D00020EE08F00150D9260250DA22DFB673EF4F
:1036E0001BF076EF1BF0010E77EF1BF0000E1200BF
:1036F00020EE08F00150D9260250DA22DFB883EF1D
:103700001BF086EF1BF0010E87EF1BF0000E12007E
:1037100020EE08F00150D9260250DA22DF8620EE92
:1037200008F00150D9260250DA22DF981200000E6C
:103730000E01DC6F000EDD6F000EDE6F000EDF6F1E
:10374000000EE06F000EE16F1200600E0E01D36FED
:10375000000ED56F000ED76F080ED96F000ED86F10
:103760001200322500341D003E2200483800003C83
:0537700078463800015D
:10377600A00E00D0E82EFDD7350EE82EFED700F0BD
:10378600120068EC19F085EC19F041EC17F010EC1A
:103796001CF0120020EE08F01650D9261750DA2237
:1037A600DF92120020EE08F00150D9260250DA22EC
:1037B600DF82120016C0EDF017C0EEF018C0EFF071
:1037C600120016C0F0F017C0F1F018C0F2F01200A7
:1037D60016C0F3F017C0F4F018C0F5F0120016C0CA
:1037E600E3F017C0E4F018C0E5F0120016C047F089
:1037F60017C048F018C049F0120028EC0BF055EC41
:103806001AF012000E01C693A3EC11F01200DFECC1
:1038160017F012003FEC1AF0120091EC17F01200AC
:10382600000E12003F501200C8901200CE901200F7
:0F383600C8801200CE801200F29A1200483800AB
:0A384600120012001200120012001E
:020000040020DA
:10000000FFFFFFFFFFFFFFFFFFFFFFFFFFFFFFFF00
:10001000FFFFFFFFFFFFFFFFFFFFFFFFFFFFFFFFF0
:10002000FFFFFFFFFFFFFFFFFFFFFFFFFFFFFFFFE0
:10003000FFFFFFFFFFFFFFFFFFFFFFFFFFFFFFFFD0
:10004000FFFFFFFFFFFFFFFFFFFFFFFFFFFFFFFFC0
:10005000FFFFFFFFFFFFFFFFFFFFFFFFFFFFFFFFB0
:10006000FFFFFFFFFFFFFFFFFFFFFFFFFFFFFFFFA0
:10007000FFFFFFFFFFFFFFFFFFFFFFFFFFFFFFFF90
:10008000FFFFFFFFFFFFFFFFFFFFFFFFFFFFFFFF80
:10009000FFFFFFFFFFFFFFFFFFFFFFFFFFFFFFFF70
:1000A000FFFFFFFFFFFFFFFFFFFFFFFFFFFFFFFF60
:1000B000FFFFFFFFFFFFFFFFFFFFFFFFFFFFFFFF50
:1000C000FFFFFFFFFFFFFFFFFFFFFFFFFFFFFFFF40
:1000D000FFFFFFFFFFFFFFFFFFFFFFFFFFFFFFFF30
:1000E000FFFFFFFFFFFFFFFFFFFFFFFFFFFFFFFF20
:1000F000FFFFFFFFFFFFFFFFFFFFFFFFFFFFFFFF10
:020000040030CA
:0C0000008CFFBFF79FFFFFFFFFFFFFFF1B
:00000001FF
